:020000040000FA
:0400000080312F28F4
:100008007E1480310B1F09280A282D284E01991CBF
:100018000E280F281A288F1C122813281A28410185
:1000280029088A0028080A0080312D28191C1D2853
:100038001E282D280F1C212822282D2841012F0891
:100048008A002E080A0080312D282D282D282D28D9
:100058002D287E10090080313128F701F801F901B7
:100068004001ED01EE014101A001A101A201A3019E
:10007800A401A501A601A701A801A9017E104001BC
:1000880086316D2E400147088039CC004C08D800D5
:100098004735CC004C08DA00C61F53285428562888
:1000A8005A1456285A0803195A285B286C285A0AE1
:1000B800031D5F28602869280030C7000030C6008B
:1000C8000030C5000030C4006928C617C70175286C
:1000D8000030C7000030C6000030C5000030C40042
:1000E80075284B088039CC004C08D90059085806A7
:1000F80003197F2880288228581782284B35CC007E
:100108004C08D900CA1F89288A288C2859148C2899
:100118005908031990289128A228590A031D9528DF
:1001280096289F280030CB000030CA000030C90054
:100138000030C8009F28CA17CB01AA280030CB007E
:100148000030CA000030C9000030C8005A085902FF
:100158000318AF28B028F628581FB328B428B928A0
:100168008030CC004C08D806B9285A08CC004C0876
:10017800DB005908CC004C08DA005B08CC004C08BE
:10018800D9004408CC004C08DB004808CC004C08D7
:10019800C4005B08CC004C08C8004508CC004C08DB
:1001A800DB004908CC004C08C5005B08CC004C08B3
:1001B800C9004608CC004C08DB004A08CC004C08B3
:1001C800C6005B08CC004C08CA004708CC004C08A5
:1001D800DB004B08CC004C08C7005B08CC004C087F
:1001E800CB00F628DB015A08CC00CD01CC09CD099B
:1001F800CC0A0319CD0A59084C07CE004D0803183C
:100208004D0ACF004F08803AD00080305002031DBD
:100218000F291A304E02031C122913294F294001B5
:100228004708460445044404031D1B291D290130C1
:100238001E290030CC004C08DB000030C70000301D
:10024800C6000030C5000030C4005908CC004C0876
:10025800DA0057294F295B1C3229332939295B36A3
:100268000138CC004C08DB003C290310DB0C3C298E
:10027800441C3F2940294229DB1742290130CC0080
:10028800C737C60CC50CC40CCC0B44290130CC00B4
:100298004C08DA074F29400159085A02031C55290E
:1002A80056292F295729581B5A295B2997295A0853
:1002B800031D5F2960296A290030C7000030C60085
:1002C8000030C5000030C400B72AB72A4808C40760
:1002D8004908C53D4A08C63D4B08C73D471C752916
:1002E80076293E2A5B1C79297A2980295B360138D0
:1002F800CC004C08DB0083290310DB0C8329441C49
:10030800862987298929DB1789290130CC00C73735
:10031800C60CC50CC40CCC0B8B290130CC004C0886
:10032800DA073E2A3E2A4708803ACC004B08803A32
:100338004C02031DA9294A084602031DA929490898
:100348004502031DA929480844020318AC29AD2910
:10035800F929FF30CC00FF30CD00FF30CE00FF3050
:10036800CF004808D0004908D1004A08D2004B08FD
:10037800D3004409D4004509D5004609D6004709E9
:10038800D700D40A0319D50A0319D60A0319D70ABC
:100398005408D0075508D13D5608D23D5708D33DDB
:1003A8005008CC075108CD3D5208CE3D5308CF3DEB
:1003B8004F08C7004E08C6004D08C5004C08C400C9
:1003C8008030CC004C08D806DB09DB0A5B08031D2B
:1003D800EE29EF29012A0130C4070030C53D00305D
:1003E800C63D0030C73D012A012A4808C402490811
:1003F800C53B4A08C63B4B08C73B4708460445046B
:100408004404031D082A092A382A5B08031D0D2AFB
:100418000E2A382A0030C7000030C6000030C50058
:100428000030C400B72AB72A382A0130C435C50DB0
:10043800C60DC70D890B1A2ADB1F232A242A252A51
:1004480044145B1C282A292A2C2A0314DB0D2F2A82
:100458000310DB0D2F2A5A080319332A342A382AA5
:100468000130DA02382A382AC61F3B2A3C2A192AC0
:100478003E2A3E2AD901DB1F422A432A552A5B0815
:100488007F390319482A492A4C2AD901D90A552AF9
:10049800441C4F2A502A552AD901D90A552A552AC7
:1004A800552A59080319592A5A2A892A0130C40792
:1004B8000030C53D0030C63D0030C73D471C652AA9
:1004C800662A892A4408CC004508CD004608CE0093
:1004D8004708CF000130D000CF37CE0CCD0CCC0C64
:1004E800D00B702A4F08C7004E08C6004D08C5003B
:1004F8004C08C4005A0A0319822A832A892A01301F
:10050800CC004C08DA07892A892A5A0A03198D2A45
:100518008E2A942A5A08031D922A932AA42A942AD6
:100528000030C7000030C6000030C5000030C400ED
:100538005A08031DA02AA12AA42AD801A42AA42A59
:100548005A1CA72AA82AAA2AC617AE2A7F30CC0086
:100558004C08C6055A36CC004C08C700D81FB52A27
:10056800B62AB72AC717080040012D088039B200FB
:100578003208B7002D35B2003208BD00AC1FC52ABD
:10058800C62AC82A3D14C82A3D080319CC2ACD2AF0
:10059800DD2A3D0A031DD12AD22ADB2A0030AD000C
:1005A8000030AC000030AB000030AA00DB2AAC17EA
:1005B800E62A0030AD000030AC000030AB0000305F
:1005C800AA00E62A31088039B2003208B706313568
:1005D800B2003208BC00B01FF22AF32AF52A3C14F4
:1005E800F52A3C080319F92AFA2A0A2B3C0A031DA2
:1005F800FE2AFF2A082B0030B1000030B00000307E
:10060800AF000030AE00082BB017132B0030B1003C
:100618000030B0000030AF000030AE00132B3C08B3
:100628000319172B182B1E2B3D08031D1C2B1D2BE4
:10063800282B1E2B0030AD000030AC000030AB0082
:100648000030AA00222D222D2A08B2003208F30019
:10065800300887316927823174084001C300730864
:10066800C2004208B200B301B401B5013508BB00AD
:100678003408BA003308B9003208B8004308B20099
:10068800B301B401B5013508C1003408C00033080E
:10069800BF003208BE002B08B2003208F3002F0852
:1006A80087316927823174084001C3007308C2008A
:1006B8004208B200B301B401B5013208B8073308E3
:1006C800B93D3408BA3D3508BB3D4308B200B30113
:1006D800B401B5013208BE073308BF3D3408C03D38
:1006E8003508C13D2C08B2003208F3002E088731C6
:1006F8006927823174084001C3007308C2004208A8
:10070800B200B301B401B5013208B8073308B93DE6
:100718003408BA3D3508BB3D4308B200B301B40103
:10072800B5013208BE073308BF3D3408C03D35085F
:10073800C13D0830B835B90DBA0DBB0D890B9E2BDC
:100748002B08B2003208F3002E088731692782315E
:1007580074084001C3007308C2004208B807430880
:10076800B93D0030BA3DBB3D2A08B2003208F3005B
:100778002F0887316927823174084001C300730844
:10078800C2004208B8074308B93D0030BA3DBB3D36
:100798000830B835B90DBA0DBB0D890BCD2B2A0819
:1007A800B2003208F3002E088731692782317408B5
:1007B8004001C3007308C2004208B8074308B93DA6
:1007C8000030BA3DBB3D2B08B2003208F3003008B8
:1007D80087316927823174084001C3007308C20059
:1007E8004208BE074308BF3D0030C03DC13D2C084C
:1007F800B2003208F3002F08873169278231740864
:100808004001C3007308C2004208BE074308BF3D49
:100818000030C03DC13D2C08B2003208F30030085A
:1008280087316927823174084001C3007308C20008
:100838004208B2004308B300B401B5010830B2352C
:10084800B30DB40DB50D890B232C3208BE07330840
:10085800BF3D3408C03D3508C13D3808B2003908ED
:10086800B3003A08B4003B08B5001830B536B40CEC
:10087800B30CB20C890B3A2C3208BE073308BF3DC3
:100888003408C03D3508C13D0830B835B90DBA0D3A
:10089800BB0D890B492C3D083C07B200B301B30DD1
:1008A8003208823EC200FF30333DC300742C013051
:1008B800BE35BF0DC00DC10D890B5C2CBB1F652C4F
:1008C800662C682C3E14682C0130B835B90DBA0D69
:1008D800BB0D890B692CFF30C207FF30C33D742C58
:1008E800C01F772C782C5B2C792CBC01BB1F7D2C6E
:1008F8007E2C9E2CFF303805B200FF303905B3003E
:10090800FF303A05B4007F303B05B50035083404A4
:10091800330432040319912C922C952CBC01BC0A87
:100928009E2C3E1C982C992C9E2CBC01BC0A9E2CFB
:100938009E2C9E2C3C080319A22CA32CCD2C0130F4
:10094800BE070030BF3D0030C03D0030C13D411CF6
:10095800AE2CAF2CCD2C3E08B2003F08B3004008A7
:10096800B4004108B5000130B600B537B40CB30C7B
:10097800B20CB60BB92C3508C1003408C0003308D6
:10098800BF003208BE000130C2070030C33DCD2C85
:10099800CD2C4308803AB20080303202031DD62C99
:1009A800FF304202031CD92CDA2CE42C7F304001A2
:1009B800C1008030C0000030BF000030BE00152DDF
:1009C80040014308803AB20080303202031DEE2C09
:1009D800013042020318F12CF22CFD2C00304001AA
:1009E800C1000030C0000030BF000030BE00B701B9
:1009F800152D40014208B2003208BD00FF30BE0587
:100A0800FF30BF057F30C0050030C1053D1C0D2DEE
:100A18000E2D102DC017102D3D36B2003208C10022
:100A2800152D3708B2003208C1044108AD0040084E
:100A3800AC003F08AB003E08AA00222D0800400188
:100A4800A40024080319292D2A2D3E2DF61F2D2D2B
:100A58002E2D3E2D7309A6007409A7007509A8005C
:100A68007609A900A60A0319A70A0319A80A0319EF
:100A7800A90A462D7608A9007508A8007408A700D9
:100A88007308A6007608750474047304031D4D2DBD
:100A98004E2D582D0030F6000030F5000030F400DF
:100AA8000030F300D72DD72D9630A0002008A500E0
:100AB800692D0130A0002008A5070130A936A80C2F
:100AC800A70CA60C890B622D692DFE302905031D84
:100AD8006E2D6F2D5D2D842D842D0130A0002008F2
:100AE800A5070130A6070030A73D0030A83D00301B
:100AF800A93D0130A936A80CA70CA60C890B7E2DA0
:100B0800FF302905031D892D8A2D712D962D962DCF
:100B18000130A5020130A635A70DA80DA90D890B36
:100B28008F2D962DA81B992D9A2DA12D02302502C7
:100B380003189F2DA02D8C2DA12D2518A42DA52D92
:100B4800AD2DFF30A605FF30A7057F30A805FF3083
:100B5800A9050310A50C2508A000A101A201A30165
:100B68001830A035A10DA20DA30D890BB52D2008B5
:100B7800A6042108A7042208A8042308A904240815
:100B88000319C72DC82DCE2DF61FCB2DCC2DCE2D5C
:100B9800A917CE2D2908F6002808F5002708F40023
:100BA8002608F300D72D080040015C08E0005D0826
:100BB800E1005E08E2005F08E3000310620D630DC8
:100BC800E4006408E6006608031DEB2DEC2DF62D05
:100BD8000030DF000030DE000030DD000030DC00D7
:100BE8006C2E6C2E5C08E0005D08E1005E08E200F7
:100BF8005F08E3001F30E336E20CE10CE00C890BE0
:100C0800FF2D6008E4006408E500DE17FF30DC050E
:100C1800FF30DD05FF30DE050030DF059630E602E7
:100C2800E61F172E182E3B2E6608803A973E0318AB
:100C38001E2E1F2E2A2E0030DF000030DE0000306E
:100C4800DD000030DC006C2E6C2E2A2E0130DF36E1
:100C5800DE0CDD0CDC0C890B2B2E0130E00060086B
:100C6800E607031D382E392E2A2E5C2E5C2E2030E6
:100C78006602031C402E412E552E0030DF00003046
:100C8800DE000030DD000030DC006C2E6C2E552EAE
:100C98000130DC35DD0DDE0DDF0D890B4D2E013009
:100CA800E6026608031D592E5A2E4C2E5C2E5C2E29
:100CB80065080319602E612E6C2EDC09DD09DE093A
:100CC800DF09DC0A0319DD0A0319DE0A0319DF0A42
:100CD80008008731CF2786318B170B1787313327C9
:100CE800863143011114782E8F314727863141010F
:100CF800AA002A084001EB006B084101AA00AB01D9
:100D0800AC01AD012D08F6002C08F5002B08F40005
:100D18002A08F30001308531232586317608400101
:100D2800B1007508B0007408AF007308AE003D301C
:100D3800AD00F830AC00F830AB00F530AA008231D5
:100D4800B822863140012D08CB002C08CA002B0898
:100D5800C9002A08C8004130C700F030C60000307A
:100D6800C5000030C4008031462086314001470864
:100D7800DF004608DE004508DD004408DC00853158
:100D8800D825863140015D08E8005C08E700873116
:100D9800B627863143011016782E782E80312F28F9
:100DA8008F31242786318F312B278631F100710846
:100DB8004001EE008F318A2786310318E42EE52E94
:100DC800EA2E0230F1007108F8001B2F0130F10003
:100DD8007108F8001B2F1B2F8F31922786310318BB
:100DE800F62EF72EFB2E8F31E4278631022F8F3116
:100DF800D62786318F3121278631022FF7012B2FF5
:100E08008F3182278631031C0A2F0B2F132F8F3126
:100E1800C82786310230F1007108F7002B2F8F3177
:100E2800BA278631F7012B2F2B2F2B2F2B2F780842
:100E3800F100F2017208003A0319232F2B2F7108D1
:100E4800013A0319F02E033A0319042F2B2F7708C0
:100E5800F1007108F8008F311E2786310800D43060
:100E6800F5000630F6008F31B22787318731E52744
:100E7800873100308F313D278731FF308F3142274E
:100E88008731FE30F3000730F4008F315E27873159
:100E98003830F3000F30F4008F317C278731A230CF
:100EA800F3000F30F4008F31702787319A30F30048
:100EB8000F30F4008F3164278731FE30F30007309C
:100EC800F4008F317627873108004001A400A00183
:100ED800A1017308F500F6017508A2007608A300C1
:100EE800752F241C782F792F7D2F2208A00723081F
:100EF800A13D0130A235A30D890B7E2F0310A40C50
:100F08002408031D882F892F752F8A2F2108F400A4
:100F18002008F3008F2F0800400198019A0137300C
:100F280092000730940039307E01CE001F30B8009F
:100F3800B901CF01BA01D0011F30BB003F30D10049
:100F480012307D01C5000B307E01A3001630A100D0
:100F58000C30A4001530A2000D30A50011307D0121
:100F6800C600080040016808EA006708E900EA3698
:100F7800E90CEA36E90C6908460195004001670862
:100F88000339E9000530E935FF3E031DC72F6935F0
:100F98004601940008008F31AA27873187319027AE
:100FA80087318731F42787318F31522787318F3145
:100FB8004C2787318F31F22787318F315827873176
:100FC80008004301901AE92FEA2FF32F0630F300A7
:100FD800730890048F0191019016F32FF32F0800E6
:100FE800603051018D008F01910102309300900112
:060FF80092010800080050
:101E3C004301101608004301911408004E010F10C5
:101E4C00080043010D082A2F080043010C082E2F0F
:101E5C00080043010C08322F0800F0007008430101
:101E6C008C00080079088F3133278F310800F3007C
:101E7C00730843018D000800F300730843018E00C2
:101E8C0008008F312F278F314B2F080080304601EF
:101E9C009600950194010800803046019A00990142
:101EAC0098010800803046019E009D019C010800AD
:101EBC0074084101A9007308A800080074084101C6
:101ECC00A3007308A200080074084101AF00730856
:101EDC00AE00080074084101A7007308A6000800B2
:101EEC0074084101A1007308A000080074084101A6
:101EFC00A5007308A400080043010F0E890C0139DA
:101F0C00F000700C892F080043010F0C890C01396B
:101F1C00F000700C912F08004301100D100D0139C9
:101F2C00F000700C992F08008F3127278F31F000AB
:101F3C0070084001ED0008008F312B278F31F00025
:101F4C0070084001EE0008004F01960197019801BE
:101F5C0099019A019B0108007608F4007508F300BA
:101F6C008F316A278F31080041012208230403199D
:101F7C00C02FC12FC72F23088A0022080A008F31D7
:101F8C00C72F08004101260827040319CE2FCF2F95
:101F9C00D52F27088A0026080A008F31D52F080074
:101FAC004101200821040319DC2FDD2FE32F210828
:101FBC008A0020080A008F31E32F08004101240811
:101FCC0025040319EA2FEB2FF12F25088A0024088A
:101FDC000A008F31F12F08000130450190008F016C
:101FEC0091019B308D008C014E019010F030450119
:041FFC008E0008004B
:020000040001F9
:0A000E00EC3FFF3F9F3FFF3FFF3F25
:00000001FF
